S1130400CE10001511061311011F120F01081C0054
S11304100C151101202CCC002CF3100EFD101686A7
S113042080B71023B6100A2038130F01151D000CD5
S1130430141101CC0005F3100EFD10168680B710C0
S1130440233B1D0008CC003FF31016FD10168680D8
S1130450B71023860C4A26FDB6100A1C00081D009E
S1130460048411912F2709972F14110212110105E9
S1130470860F4A26FDB6100A121101031C000484DB
S113048044913027059730141104121102201311DE
S1130490040A140C08860697347E0606963427044C
S11304A04A97343BCC0064F31016FD10163B8606C5
S11304B09734140C0818DE28DC24186E001D000183
S11304C0120E800B122F012B122F100E7E06061215
S11304D02F0107122F101C7E06068300012A03F346
S11304E00139DD24CC0563130E8003CC0510DD280F
S11304F07E0606C300011AB301392D03B30139DDA9
S113050024CC0510130E8003CC0563DD287E06067B
S11305101C0001120E800B132F0112122F10277EC4
S11305200606132F0120122F10037E0606830001F6
S11305302A03F30139DD24CC04BD130E8003CC055A
S1130540B6DD287E0606C300011AB301392D03B3B4
S11305500139DD24CC05B6130E8003CC04BDDD289F
S11305607E06061C0001120E800B122F0112132F9F
S113057010277E0606122F0120132F10037E060675
S11305808300012A03F30139DD24CC05B6130E8060
S113059003CC04BDDD287E0606C300011AB301396D
S11305A02D03B30139DD24CC04BD130E8003CC0527
S11305B0B6DD287E06061D0001120E800B132F01E6
S11305C02B132F100E7E0606132F0107132F101C5A
S11305D07E06068300012A03F30139DD24CC0510CD
S11305E0130E8003CC0563DD287E0606C300011AC2
S11305F0B301392D03B30139DD24CC0563130E8017
S113060003CC0510DD28121104013B18DE2ACE109C
S113061000DC26186E001D0002120E400912304044
S11306203B1230040A3B123040051230042E3B8347
S113063000012A13F30147DD26DC24B3013B2A031E
S1130640F30139DD242008DD261AB3014B27EACC57
S11306500704130E4003CC068DDD2A3BC300011AA8
S1130660B301472D13B30147DD26DC24B3013B2A34
S113067003F30139DD242008DD261AB3014927EAF2
S1130680CC068D130E4003CC0704DD2A3B1C00026C
S1130690120E40091330400E123004373B13304021
S11306A032123004013B8300012A13F30147DD2693
S11306B0DC24B3013B2A03F30139DD242008DD26C1
S11306C01AB3014B27EACC0616130E4003CC077B62
S11306D0DD2A3BC300011AB301472D13B30147DDE3
S11306E026DC24B3013B2A03F30139DD242008DD91
S11306F0261AB3014927EACC077B130E4003CC0624
S113070016DD2A3B1C0002120E40091230400E1363
S11307103004373B12304032133004013B83000174
S11307202A13F30147DD26DC24B3013B2A03F3013A
S113073039DD242008DD261AB3014B27EACC077BD8
S1130740130E4003CC0616DD2A3BC300011AB30185
S1130750472D13B30147DD26DC24B3013B2A03F301
S11307600139DD242008DD261AB3014927EACC0625
S113077016130E4003CC077BDD2A3B1D0002120E2C
S113078040091330403B1330040A3B133040051337
S113079030042E3B8300012A13F30147DD26DC24B9
S11307A0B3013B2A03F30139DD242008DD261AB303
S11307B0014B27EACC068D130E4003CC0704DD2A37
S11307C03BC300011AB301472D13B30147DD26DCF7
S11307D024B3013B2A03F30139DD242008DD261A62
S11307E0B3014927EACC0704130E4003CC068DDD80
S10507F02A3B9E
S11307F2150C2018CE0000CE00E7E600C030183AEF
S11308028C00EA2706BD08730820EF18DF3BCEE010
S113081200D63D58583AA600EE01B70289BD10F23F
S1130822E609D7F4D6F43AA60181FF2723EC091A84
S1130832933B26F018CE0201D63D5858183ACDEF14
S113084201B6028918A700140C20BD10E77E81DED0
S1130852A606EE07B70289BD10F2A600913D27C095
S1130862BD10E7CE4FD6BD37E98601BD3F4D7E812F
S1130872DE183C188F860A3D18383736188FC60A98
S10A08823D321B33188F39CE
S1130889130C1020FE0286B60285B70289BD10F248
S1130899E600D73DBD10E718CEE0E0183A18E600A7
S11308A9D73E2005BD116ED63EBD10F2A601973F75
S11308B9C10726463CEE02BD10E7BD5EFACE1BEF2A
S11308C9BD3865BD587CCE005BBD5F2A383CBD1080
S11308D9F2EE04BD10E7BD5EFACE005FBD5F2ABD2E
S11308E910F238EC0BFD0292EC0DFD0294EC0FFDB5
S11308F90296EC11FD02987E0A2BC10626523CEEA3
S113090902BD10E7EC00FD015EBD5A99CE1C18BD6D
S11309193865BD587CCE005BBD5F2ABD10F2383CFA
S1130929EE04BD10E7EC00FD0160BD5AB4CE1BA472
S1130939BD3865BD587CCE005FBD5F2A38BD10F255
S1130949A6069740EC07DD41A60AB7015D7E0A2B8E
S1130959A6069740EC07DD413CEC02BD10E7BD5A01
S113096999CE1C18BD3865BD587CCE005BBD5F2A85
S1130979383CBD10F2EC04BD10E7BD5AB4CE1BA43B
S1130989BD3865BD587CCE005FBD5F2A38BD10F205
S1130999963E260AEC09DD3BBD10E77E0A2B81054C
S11309A9260AEC09DD3BEC0BDD4420768101261A8D
S11309B9EC09FD0292EC0BFD0294EC0DFD0296ECA0
S11309C90FFD0298A6119743205881022620EC09AD
S11309D9FD0292EC0BFD0294EC0DFD0296EC0FFD69
S11309E90298EC11FD029AEC13FD029C2034810358
S11309F92624EC09FD0292EC0BFD0294EC0DFD0298
S1130A0996EC0FFD0298EC11FD029AEC13FD029C81
S1130A19EC15DD44200CA6099746A60A9747EC0B6A
S1090A29DD44BD10E739B5
S1130A2FBD3802961136151110BD3E2E3297111591
S1130A3F0C2086FF97493C1830183CCE0073BD5EDE
S1130A4FFABD3D8CBD5D74CE006BBD5F2ABD3DBC50
S1130A5FCE1BA4BD3865BD5690BD5B02183818ED8A
S1130A6F00183CCEE000A600B70289EE01BD10F2DB
S1130A7FE609D7F4D6F43AA60181FF261EA6028111
S1130A8F02231181FF26037E0B8EA606B70289EE81
S1130A9F07BD10F2E609D7F43A20DCA607914A22E3
S1130AAFD3EC04183818A300183C2A054353C30089
S1130ABF011A83003222BD373CBD10E7CE006FBD53
S1130ACF5EFACE1C18BD3865BD5690BD5E0E383C1F
S1130ADFBD10F2EC02BD10E7BD5A99BD57737F00EC
S1130AEF04BD3D8CCE1BF4BD3865BD57737D00042A
S1130AFF2B0FBD3DBCCE1BF9BD3865BD57737E0BA7
S1130B0F13BD3DBC7F0004CE006BBD5F12BD56907C
S1130B1FBD3D8CCE1BA9BD3865BD57737D00042B1D
S1130B2F0BBD3DBC3833BD10F27E0A83BD3DBC14F2
S1130B3F0C20CE1BC2BD3865BD5C29BD5E0E38339B
S1130B4F3CBD3DA44FBD5A99CE1BC2BD3865BD5C9B
S1130B5F29BD3DD4BD577EBD5B2DBD5B02D149225E
S1130B6F17D74938FF0286B60289B7028596F4B7BC
S1130B7F0288BD10F27E0A8338BD10F27E0A8318F4
S1130B8F3838BD10E77D000A2B1BBD115481552742
S1130B9F0A814D271D8144271C200A0F96128802B3
S1130BAF97120E2000120C201ACE4FE6BD37E97EA5
S1130BBF0A2F7E2B17130C20EC0F96138810971304
S1130BCF0E2000BD0889131310037E82017E81DE7F
S1130BDF8610B71023B61022368480B71022B610B1
S1130BEF023684E3B710020ECE10007A00F32639D2
S1130BFF8601B710301F3080FCBD4ED424F281A77C
S1130C0F2406150E087E0CCA140E088605B710307C
S1130C1F1F3080FCBD4ED424EF81A622061D022076
S1130C2F7E0CCA1C02207E0CCA8603B710301F30FC
S1130C3F80FCBD4ED424F2C6FF81B6221C819D25B3
S1130C4F04C64C20428187223E81782504C6522057
S1130C5F3681202232C655202E8607B710301F301A
S1130C6F80FCBD4ED424F2C6FF81B6221A819D2585
S1130C7F04C64520128187220E81782504C64D2093
S1130C8F0681202202C644960A81FE252EC1FF2723
S1130C9F23120C800A7A000B2621140C80201C7D51
S1130CAF000B26048606970BF1028C260ED70A1525
S1130CBF0C802007140C808612970BF7028C120FEE
S1130CCF0405140F012010120F0209130E08051446
S1130CDF0F012003150F010F32841CBA1002B71035
S1120CEF0232B71022CC1000F3101CFD101C3B76
S1130CFEB610023684E3B71002B6102D36CE1000AD
S1130D0E1D2D600E1E2E20037E0D7EBD13D01215DA
S1130D1E010F0F32B7102D32841CBA1002B7100215
S1130D2E3B7F02B0CE100015150118DE2D188C0174
S1130D3E00252A188C01102424B6102E18A600B7EC
S1130D4E102FBB02B0B702B0180818DF2D0F328A6D
S1130D5E40A72D32841CBA1002B710023B0F151592
S1130D6E033284BFA72D32841CBA1002B710023B83
S1130D7EB6102E18DE2D188C0110272418A6001874
S1130D8E0818DF2DC6745A26FDB7102FBB02B0B754
S1130D9E02B00F32A72D32841CBA1002B710023BD8
S1130DAE1315020C151502B6102EB602B0B7102F7D
S1130DBE0F3284BFA72D32841CBA1002B710023B27
S1130DCE7F0014BD0EBBD6F43AE601C1FF270CBD5D
S1130DDE0E3A24F2BD0E5622ED203ABD0E5B24E6E9
S1130DEE1214044414140420DD7F0014BD0EBB8FB2
S1130DFED0F482008FE601C1FF270CBD0E3A24EF1A
S1130E0EBD0E5622EA200EBD0E8B24E312140418D6
S1130E1E14140420DA18CE0201D63D5858183AB6E6
S1130E2E028918A700CDEF01BD10E739A6062A06E0
S1130E3E131004020D3991401310040627020C39C5
S1130E4E0D3927020D390C39A607914A39A60281AC
S1130E5EFD220CA606B70289EE07BD10F20C39A6C8
S1130E6E03B70289EE04BD10F2A602810227020D19
S1130E7E39A606B70289EE07BD10F220E2A602815A
S1130E8E02250CA606B70289EE07BD10F20C39A690
S1130E9E03B70289EE04BD10F2A60281FD27020DEE
S1130EAE39A606B70289EE07BD10F220E2CE020182
S1130EBED63D58583AA600B70289EE01BD10F23954
S1130ECE7F00148657B7029F96404C815825014FD8
S1130EDEB7029ECEE000D63D58583AA600B7028916
S1130EEEEE01BD10F2D6F43AA606B0029E2A028B8B
S1130EFE58B1029F241136A607914A322209B7022D
S1130F0E9F1414014D2726D6F43AA60181FF26D844
S1130F1EBD0E5B24D013140117141402B6029EBB2B
S1130F2E029F815825028058B7029E20B87E0E2358
S1130F3E7E0E367F00148657B7029F96404A2A02C9
S1130F4E8657B7029ECEE000D63D58583AA600B753
S1130F5E0289EE01BD10F2D6F43AB6029EA0062A1C
S1130F6E028B58B1029F241136A607914A322209E8
S1130F7EB7029F1414014D2724D6F43AA60181FF1B
S1130F8E26D8BD0E5B24D013140115141402B60218
S1130F9E9EB0029F2A028B58B7029E20BA7E0E2361
S1060FAE7E0E367A
S11310608620B71023B61022368480B710220E7D56
S1131070029127037A02917D002C27037A002CFC2D
S1131080101AC330D4FD101A7D003127037A0031C1
S11310907A0017260E140C08DC18C30001DD18862C
S11310A01897177D001E27037A001E320FB71022EF
S10410B03B00
S11310B18640B71023B61022368480B710220EFC66
S11310C11018C3F379FD10187A001F2613DC22C30C
S11310D10001DD228602971F13108004DC22DD202B
S10910E1320FB710223BA0
S11310E736B6100284E3B71002323936B6100284DA
S10C10F7E3BA0289B71002323990
S1131100CEE00018CE0201A6002A0BCCFFFF18ED9A
S11311100018ED02201118A700E60318E703EC01FC
S1131120EB03890018ED01080808081808180818C6
S11311300818088CE08026CFCEEF20A60081FF2778
S113114007FF0281150D01390808088CEFFE26EB14
S1071150140D01393C
S1131154960A2A0B3E12160404131602F34F391589
S10D11641607140C08C6FED70A395A
S113116E37130D0227120D0123FE0281A600B702CA
S113117E89EE01BD10F2A600973DBD10E7D63D18CD
S113118ECEE0E0183A18E600D73E3339CE0201D647
S113119E3D58583AA600B70289A60397F4EE0133D8
S10411AE3903
S11312004F5FFD0118FD011AFD011CFD011EFD01CA
S113121020FD0122FD012439CE0100C620A60011C3
S11312202402E700088C010F26F3CE0100A60081FA
S11312302E2719088C010426F4CC3030FD0101FD61
S11312400103FD0105862EB7010320DE8C0103276F
S113125015CE0106A600A7018C010026068620A74C
S11312600020C70920EE8620B70100B70107C63069
S1131270CE0101A60081202602E700088C01072682
S1131280F2CE0108A600812E2719088C010C26F441
S1131290CC3030FD0109FD010BFD010D862EB70197
S11312A00B20DE8C010B2715CE010EA600A7018CA6
S11312B0010826068620A70020C70920EE862DCE29
S11312C00108A100270C08A100270708A100270294
S11312D0862BA1002604C620E700B70108C630CE3D
S11312E00109A60081202602E700088C010F26F2DE
S11312F04FA70039CE0118A60027488145270308C7
S113130020F5A6038134251ECE0118A600813024C1
S1131310030820F7CC3030ED00ED02ED04862EA753
S1131320024FA706201DCE0118A600812E27030810
S113133020F709E600862EA700E703CC3030ED0144
S11313404FA70439BD3D8CBD3DA4DE6F3CDE713C2E
S1131350DE733CDE753C961236141202BD3E2ECC72
S11313602020CE0100ED0008088C011026F7BD12E4
S113137000CE006FBD5EFACE0118BD5901BD12F456
S1131380CE011818CE0100BD3A75BD1200CE00730F
S1131390BD5EFACE0118BD5901BD12F4CE01181874
S11313A0CE0108BD3A75BD121832971238DF753870
S11313B0DF7338DF7138DF6FBD3DD4BD3DBC18CE5F
S11313C0010018DF2D141501120F0803141502393A
S11313D0B6102F810D2604BD134439814C2604BD5B
S11313E018793981672604BD187939813F2604BDEF
S11313F0190D3981522604BD4AC639814F2604BDD0
S11314004D4D3981462604BD4DE73981652604BD1D
S11314104B143981452604BD4B3039814E260414C2
S11314201604398151260F8641B7010F18CE010FDA
S111143018DF2D14150181442603BD143E3926
S113143EFF02A018FF02A2B702A4F702A5BF02A6DC
S113144E3C183C18CE1000CE0000B6102EA600B7E5
S113145E102F088C04002707181F2E40FB20EB18B2
S113146E3838393C183C18CE1000CEEE00B6102E8B
S113147EA600B7102F088CF2002707181F2E40FB6A
S109148E20EB1838383988
S1131494CE5236BD37C7860EBD4A7CCE5146120D98
S11314A40203CE5156BD37E98604120D02028609A1
S11314B4BD3DECBD115481552602201C81442602F5
S11314C42016814C2605140D0220C58152260515CB
S11314D40D0220BC814D26B8130D020E36150C10D6
S11314E41513E0FE0281BD08893239FE028109091F
S11314F4098CEF1D270F1AEE01188CFFFF27EFFF4D
S11315040281BD088939FE02810808088CEFFE2790
S11315140F1AEE01188CFFFF27EFFF0281BD088923
S10415243989
S1131525CE103F86EFBD25AB86107E152F8600B7FE
S113153510358603B710244FB7100086FFB7100186
S113154586DFB710098620B71028B6EE288AE78407
S1131555DF16C418C118260484EF8A08B710088654
S113156502B7100286FFB71003862CB7102DCE04E0
S113157500096F008C000026F8F6EE20C41886EEEC
S1131585FD02B1FE02B1A60484078A30B7102BA66A
S11315950484E0970EA605840E970FA60584E097AC
S11315A51015111013102003141110A60684FE97AC
S11315B54A8670130F080286F0B7102286FE970A32
S11315C58E03FFB6103F81EF27037E152586089706
S11315D5F386FFB710098610B71035CE10001D002D
S11315E50886144A26FDB6100A8411972F81112600
S11315F50718CE05B61C00018101260718CE051073
S11316051D00018110260718CE05631D0001810008
S1131615260718CE04BD1C000118DF281C00081D70
S1131625000486144A26FDB6100A1C000484449757
S1131635308144260718CE077B1C0002814026070B
S113164518CE068D1D00028104260718CE07041D39
S113165500028100260718CE06161C000218DF2A90
S11316651C3980B6EE288418971212121802200627
S1131675141208151210FC100EC30074FD1016BDCB
S113168527D50EC610BD37AC8638BD1763C605BD54
S113169537AC8638BD1763C601BD37AC8638BD1770
S11316A5638628BD17638628BD4A7C8608BD4A7CA7
S11316B5860EBD4A7C8606BD4A7CBD2BDCCE100059
S11316C51F0A880220037E34E7CEEF1EEC002711A3
S11316D5CEEE303C4FBD25AB388CEF1F27030820D9
S11316E5F2CEEE00A60081FF2609088CEE2026F432
S11316F5BD178ECE4F26BD37C7CE4F36BD37E986CB
S113170501BD3F4DB6E500810F26037E9055BD1DF5
S1131715CDBD2025BD20A5121040061310200220A2
S113172517CE4F66BD37C7CE4F76BD37E9BD1154C9
S11317358155270C814426F5150D40BD2E542006F0
S1131745140D40BD2A32BD11007F003DBD0889142A
S11317550C0814120215100415130C7E81DECE102C
S1131765001D020249564956495649561784F00F39
S1131775F61000C40F1BB710000E1C02011D020158
S11317851C020286144A26FD39CEEE00860FBD25BD
S1131795ABCEEE08860FBD25ABCEEE10860FBD256C
S11317A5ABCEEE18860FBD25ABCEEE0186A0BD25CA
S11317B5ABCEEE0986A0BD25ABCEEE1186A0BD2528
S11317C5ABCEEE1986A0BD25ABCEEE02860FBD25A8
S11317D5ABCEEE0A860FBD25ABCEEE12860FBD2528
S11317E5ABCEEE1A860FBD25ABCEEE0386A0BD2586
S11317F5ABCEEE0B86A0BD25ABCEEE1386A0BD25E4
S1131805ABCEEE1B86A0BD25ABCEEE048620BD2552
S1131815ABCEEE0C8620BD25ABCEEE148620BD25C1
S1131825ABCEEE1C8620BD25ABCEEE05868EBD2542
S1131835ABCEEE0D868EBD25ABCEEE15868EBD25C3
S1131845ABCEEE1D868EBD25ABCEEE0686AABD2596
S1131855ABCEEE0E86AABD25ABCEEE1686AABD2569
S1131865ABCEEE1E86AABD25ABCEEE20A60084E047
S1071875BD25AB39A5
S113187981672605BD19DB2003BD1993240139BDF0
S11318893D8CBD3DA43CCE0103BD54F6CE1C18BD10
S11318993865BD5690BD5AEB38378CEE302404A711
S11318A9002003BD25AB32088CEE302404A70020A8
S11318B903BD25AB083CCE010ABD54F6CE1BA4BD1D
S11318C93865BD5690BD5AEB38BD3DD4BD3DBC37D6
S11318D98CEE302404A7002003BD25AB32088CEE1E
S11318E9302404A7002003BD25ABCE10008641B7E0
S11318F9010F18CE010F18DF2D141501120F08035B
S113190914150239BD1993240139BD3D8CBD3DA47B
S11319193CCC2020CE0100ED0008088C011026F7EC
S1131929BD1200383CEC00BD5A99CE1C18BD38656F
S1131939BD587CCE0118BD5901BD12F4CE01181849
S1131949CE0100BD3A75380808EC00BD5AB4CE1B67
S1131959A4BD3865BD587CCE0118BD5901BD12F42A
S1131969CE011818CE0108BD3A75BD3DD4BD3DBCA4
S1131979BD1218860DB7010F18CE010018DF2D14FA
S11319891501120F0803141502398604B70291CE02
S113199901003CCE10007D02912603380D391F2E1B
S11319A920F1B6102F38A700083C8C011824EC81CB
S11319B90D26E038B601008030C60A3D8FF60101D4
S11319C9C0303A8F05051A83018C2747C3EE308F3F
S11319D90C397F02B08604B70291CE01033CCE10C4
S11319E9007D02912603380D391F2E20F1B6102FE0
S11319F938A700B802B0B702B0083C8C011227041A
S1131A0924E420DA387D02B027020D398620B70193
S1131A19112000861E973D18CEE07818E603863C0F
S1131A293D18EE01183C183018E3001838188F18BF
S1121A39FF027A4FB70279CE028D1416030C39CF
S1131A48CE5016BD37C7150E04CE5166120E0403C8
S1131A58CE5176BD37E9860EBD4A7C8604120E0443
S1131A68028609BD3DECBD1154814C2605140E04B3
S1131A7820D781522605150E0420CE814526CA1288
S1131A880E040139CEEF20EC011A83FFFF270D085D
S1131A9808088CEFFE26F0CE5006202C150D013CCC
S1131AA8BD116EBD1AE3240638CE5046201A8F386D
S1131AB8FF02813708BD25AB3208BD25AB0909B63D
S1131AC80289BD25ABCE5056BD37E9860CBD4A7C8C
S1131AD88601BD3F4D860EBD4A7C3918CEEF20CD18
S1131AE8AC01270E180818081808188CEFFE26EF02
S10F1AF80C3918A600B1028926F60D393D
S1131B04CE5026BD37C7150E04CE5166120E0403FB
S1131B14CE5176BD37E9860EBD4A7C8604120E0486
S1131B24028609BD3DECBD1154814C2605140E04F6
S1131B3420D781522605150E0420CE814526CA12CB
S1131B440E040139FE028186FFBD25AB0886FFBD64
S1131B5425AB0886FFBD25AB088CEFFE270DEC01F1
S1131B641A83FFFF261808080820EEFE02810909DB
S1131B74098CEF1D2710EC011A83FFFF27F0FF02E5
S1131B8481BD08892003140D01CE5056BD37E98662
S10D1B940CBD4A7C8601BD3F4D39AB
S1131B9E00000000000087C800000086C800000096
S1131BAE849000000088B40000008180000000844E
S1131BBEB1C71C00828000000082C4BC6A0081ABE5
S1131BCE020C0085A051EB0089B40000008CE100EA
S1131BDE000087B400000083C000000084A0000051
S1131BEE0084F00000008F8CA00000908CA00000F8
S1131BFE85C00000000087C600000086F0000000CB
S1131C0E8A960000008BB40000008BBB8000008C11
S1131C1EFA0000007AA40000008AFA00000089B6D7
S1131C2EA0000085F4E1470086FE00000093B25840
S1131C3E400086E52EE10095D50D8A0094F424002B
S1131C4E0098989680009BBEBC200083C90FDB00D1
S1131C5E85C800000086896666008CBDAE7E00864F
S1131C6EC851EC008B98C3A40088EEF4F000889061
S1131C7EF5C30082FA1FFBFF86A2E61E0082FF4D0B
S10A1C8E080086E52EDD00CD
S1131C95414E44414E5441505341514C415152419E
S1131CA55241415249415552424F4F4341454341A7
S1131CB54D43415043415243415343454E4345509F
S1131CC5434554434841434952434D41434D494398
S1131CD54E43434F4C434F4D43524143524243526B
S1131CE55443525543525643564E43594744454C23
S1131CF5444F52445241455155455249464F524726
S1131D05454D475255484552484F524859414859FF
S1131D1549494E444C41434C454F4C45504C49422E
S1131D254C4D494C55504C594E4C59524D454E4DC0
S1131D3549434D4F4E4D55534E4F524F43544F50BB
S1131D45484F5249504156504547504552504845D1
S1131D55504943505341505343505550505958528C
S1131D65455453434C53434F53435453455253459E
S1131D755853474553475254415554454C54524181
S1131D85545249545543554D41554D4956454C5664
S10B1D954952564F4C56554CBF
S1131D9DBD2E26D63D5A2A02C61F37CEE0E03AE6BE
S1131DAD00332BF12015BD2E26D63D5CC11F23011A
S1131DBD5F37CEE0E03AE600332BF0D73D7E81DE8F
S1131DCDBD2E3DBD2E26CE5446BD37C7860EBD4A0B
S1131DDD7CB6EE24810C23028601B70162B6EE2592
S1131DED811F23028601B70163FCEE261A8307F8CF
S1131DFD2305CC07D020091A8307C62403CC07D0AA
S1131E0DFD0164BD1EDD4FBD3DECBD115481452763
S1131E1D06815226F12001398601BD3DECBD1154D8
S1131E2D815527168144272281452604BD2000397A
S1131E3D814C27D2815226E0201AB60162810C24EE
S1131E4D014CB70162BD1EDD20CEB60162810123B6
S1131E5DF14A20EE8605BD3DECBD11548155271682
S1131E6D8144272281452604BD200039814C27A8B1
S1131E7D815226E0201AB60163811F24014CB7015B
S1131E8D63BD1EDD20CEB60163810123F14A20EE30
S1131E9D8609BD3DECBD115481552712814427227D
S1131EAD81452604BD200039814C26E420A6FC0181
S1131EBD641A8307F82403C30001FD0164BD1EDD0C
S1131ECD20CEFC01641A8307C623EF83000120EAA8
S1131EDDCE1FD0F601625A58583AEC00DDE4EC02FC
S1131EEDDDE6CE1F2CF601635A583AEC00DDE8C648
S1131EFD2CD7EACE1F6AFC01641A8307D02D09186A
S1131F0DCE323018DFEC200718CE313918DFEC83D0
S1131F1D07C6583AEC00DDEECE00E3BD37E93930A3
S1131F2D313032303330343035303630373038307C
S1131F3D393130313131323133313431353136316A
S1131F4D3731383139323032313232323332343250
S1131F5D353236323732383239333033313930392C
S1131F6D31393239333934393539363937393839F4
S1131F7D3930303031303230333034303530363032
S1131F8D3730383039313031313132313331343118
S1131F9D35313631373138313932303231323232FE
S1131FAD33323432353236323732383239333033E4
S1131FBD31333233333334333533363337333833D4
S1131FCD3934304A616E20466562204D617220417C
S1131FDD7072204D6179204A756E204A756C2041CE
S1131FED756720536570204F6374204E6F762044BF
S1131FFD656320B60162CEEE24BD25ABB60163CE7A
S113200DEE25BD25ABB60164CEEE26BD25ABB601DE
S10B201D65CEEE27BD25AB39A9
S1132025FCEE26FD0164B6EE25B70163B6EE24B7D2
S113203501628102220E8B0CB70162FC01648300EC
S113204501FD0164FC01648307D0BD5AB4CE1C2C88
S1132055BD3865BD5690BD5AC14D2A097D0000277E
S113206504C0018200FB0163890037364FF6016223
S11320755CBD5AB4CE1C31BD3865BD5690BD5AC140
S113208530E30038BD5AB4CE1C36BD3865BD577330
S1132095CE1C3BBD3865BD587CCE0166BD5F2A3973
S11320A5CE5456BD37C7CE5466BD37E9BD2151CE92
S11320B55F46BD21DFBD2285CE01C1CC01C5BD2949
S11320C543CE628EBD21DFBD2285CE01C9CC01CDB3
S11320D5BD2943CE68BABD21DFBD2285CE01D1CC51
S11320E501D5BD2943CE6CCEBD21DFBD2285CE01F0
S11320F5D9CC01DDBD2943CE730ABD21DFBD2285BF
S1132105CE01E1CC01E5BD2943CE78DABD21DFBDA1
S11321152285CE01E9CC01EDBD2943CE7D2ABD2121
S1132125DFBD2285CE01F1CC01F5BD2943BD236771
S1132135CE0187BD5EFACE018BBD5F12BD221EBDE9
S11321452285CE01F9CC01FDBD294339CE6512BDE9
S113215522ECFF019BCE1C45BD3865BD587CCE01E4
S11321656BBD5F2AFE019BBD22ECFF019BCE1C4586
S1132175BD3865BD587CBD3D8CFE019BBD22ECCEB2
S11321851C54BD3865BD587CBD5E0EBD3DBCBD3D12
S1132195A4BD3D8CBD5D74BD5690BD3D8CCE016B1B
S11321A5BD5F12BD5E0EBD5D74BD5690CE016FBDA3
S11321B55F2ABD3DD4CE016BBD5EFABD5D6EBD56D5
S11321C590CE0173BD5F2ABD3DBCBD3DD4BD5D6EE2
S11321D5BD5690CE0177BD5F2A39BD22ECFF019B28
S11321E5CE1C45BD3865BD587CCE016BBD5F2AFE4E
S11321F5019BBD22ECFF019BCE1C45BD3865BD5836
S11322057CBD3D8CFE019BBD22ECCE1C54BD3865C6
S1132215BD587CBD5E0EBD3DBCBD3DA4BD3D8CBD64
S11322255D74BD5690BD3D8CCE016BBD5F12BD5E28
S11322350EBD5D74BD5690CE016FBD5F12BD577363
S1132245CE00C7BD5F2ABD3DD4CE016BBD5EFABDD0
S11322555D6EBD5690CE0173BD5F12BD5773CE0042
S1132265CBBD5F2ABD3DBCBD3DD4BD5D6EBD5690A5
S1132275CE0177BD5F12BD5773CE00CFBD5F2A393E
S1132285CE650ABD5EFACE00CFBD5F12BD5690BDC8
S11322953D8CCE650EBD5EFACE00CBBD5F12BD563C
S11322A590BD3DD4BD5773CE00BFBD5F2ACE650A30
S11322B5BD5EFACE00CBBD5F12BD5690BD3D8CCE42
S11322C5650EBD5EFACE00CFBD5F12BD5690BD3D15
S11322D5D4BD577ECE00C3BD5F2ACE00C7BD5EFA0E
S11322E5CE00BBBD5F2A39BD2309BD3D8CBD230985
S11322F53CCE0166BD5F12BD569038BD3DD43CBD94
S1132305577E38394F36363636363CCE0166BD5E95
S1132315FA383CC6083ABD5F12BD5690383CC6042F
S11323253ABD5F12BD577ECE1C59BD3865BD587C7C
S1132335BD5AC1CE1BD6BD3865BD5690BD5D74383A
S1132345BD5F12C60C3A3C7D0005260538BD3DBC73
S113235539BD569038BD3DD43CBD577E38BD3D8C06
S105236520A8AA
S1132367CE0166BD5EFACE1BEABD3865BD5690CE7A
S11323770166BD5F2ABD3D8CCE1C68BD3865BD5660
S113238790CE1C63BD3865BD577ECE017BBD5F2AE9
S1132397BD3DBCBD3D8CCE1C72BD3865BD5690CECF
S11323A71C6DBD3865BD577ECE017FBD5F2ABD3D1F
S11323B7BCCE1C7CBD3865BD5690CE1C77BD386538
S11323C7BD577ECE0183BD5F2ACC0000FD016BFDA6
S11323D7016DFD0187FD0189FD018BFD018DCE7F17
S11323E7A6FF019BE6002A037E253B4FBD5AB4CEC8
S11323F7017BBD5F12BD5690CE018FBD5F2AFE01E2
S11324079B4FE6012B0220014ABD5AB4CE017FBD82
S11324175F12BD5690CE018FBD5F12BD577ECE01B0
S11324278FBD5F2AFE019B4FE6022B0220014ABDA6
S11324375AB4CE0183BD5F12BD5690CE018FBD5FE6
S113244712BD577ECE018FBD5F2ABD3D8CBD5D6E2B
S1132457CE0193BD5F2ABD3DBCBD5D74CE0197BD62
S11324675F2AFE019BC6033AFF019BBD5EFACE01BC
S113247793BD5F12BD5690BD3D8CFE019BC6043AC9
S1132487FF019BBD5EFACE0197BD5F12BD5690BD9D
S11324973DD4BD577ECE016BBD5F12BD577ECE01C5
S11324A76BBD5F2AFE019BC6043AFF019BBD5EFA22
S11324B7CE0193BD5F12BD5690BD3D8CFE019BC6F8
S11324C7043AFF019BBD5EFACE0197BD5F12BD566C
S11324D790BD3DD4BD577ECE0187BD5F12BD577EEB
S11324E7CE0187BD5F2AFE019BC6043AFF019BBD4F
S11324F75EFACE0193BD5F12BD5690BD3D8CFE01C1
S11325079BC6043AFF019BBD5EFACE0197BD5F12DD
S1132517BD5690BD3DD4BD577ECE018BBD5F12BD68
S1132527577ECE018BBD5F2AFE019BC6043AFF018D
S11325379B7E23EBCE016BBD5EFACE1C4ABD38658C
S1132547BD587CCE0183BD5F12BD577ECE016BBDE6
S11325575F2ACE018BBD5EFACE1C4FBD3865BD58D0
S11325677CCE1C86BD3865BD577ECE018BBD5F2AE8
S1132577CE0187BD5EFACE1C4ABD3865BD587CCEF8
S11325871C81BD3865BD577ECE0187BD5F2ACE014C
S113259766BD5EFACE1BEABD3865BD587CCE0166C2
S10725A7BD5F2A39AD
S11325ABA100273B8CEE002C04A7002032363CA65E
S11325BB0081FF27148616B7103BA7008617B710A8
S11325CB3BC60ABD37AC7F103B8602B7103B383293
S11325DBA7008603B7103BC60ABD37AC7F103B3947
S11325EB3CBD2E3DBD2E26CE5426BD37C7FE02B1B3
S11325FBEC0020123CBD2E3DBD2E26CE5436BD37ED
S113260BC7FE02B1EC02BD26788604BD3DECBD11BC
S113261B548155271681442727814C27388152270B
S113262B40814526E9BD26C3386E00D648C1042631
S113263B023839BD26AB813927D44CBD26B420CE04
S113264BD648C10426023839BD26AB813027BF4A90
S113265BBD26B420B99648810427B34ABD3DEC206E
S113266BAD9648810927A74CBD3DEC20A1CE000AAD
S113267B02CB30D7EC8FCE000A02CB30D7EB8FCE08
S113268B000A02CB30D7EA8FCE000A02CB30D7E94F
S113269B8FCE000A02CB30D7E8CE00E3BD37E93941
S11326ABCE00E3D6483AA60039CE00E3D6483AA783
S11326BB00CE00E3BD37E939CE00E708A600813030
S11326CB27F9BD54F6BD5AEB1838383C183C378CF7
S11326DB25EB2707FE02B108082003FE02B13CBD1F
S11326EB25AB380832BD25ABCE5246BD37E9860142
S10726FBBD3F4D3955
S11326FFCE54E6BD37C7860EBD4A7CB602B28118EA
S113270F24718110244A810824238600B702B2BDA4
S113271F27BFCE54A6BD37E98603BD3DECBD11548A
S113272F814C274F815227058145276D398608B77C
S113273F02B2BD27BFCE54B6BD37E98606BD3DEC08
S113274FBD1154814C27C3815227058145274A392E
S113275F8610B702B2BD27BFCE54C6BD37E986096E
S113276FBD3DECBD1154814C27C3815227058145D2
S113277F2727398618B702B2BD27BFCE54D6BD3727
S113278FE9860CBD3DECBD1154814C27C381522702
S113279F0581452704397E2719B602B2CEEE20BD36
S11327AF25ABCE5246BD37E98601BD3F4D7E26FF90
S11327BFFE02B1A60484E0970EA605840E970FA619
S10927CF0584E0971039B7
S11327D5FE02B1EC00FD013904FD013B04FD013DA0
S11327E5EC00BD5A99CE1BD6BD3865BD587CCE01CB
S11327F53FBD5F2ABD5E0ECE1BA4BD3858BD587CB7
S1132805CE0143BD5F2AFE02B1EC02FD014704FD82
S1132815014904FD014DBD5A99CE0157BD5F2AFEFC
S113282502B1EC0204830001FD014BEC02BD5A998F
S1132835CE1BD6BD3865BD587CCE014FBD5F2ABDC4
S11328455E0ECE1BA4BD3858BD587CCE0153BD5F6A
S10528552A391A
S1132857CE5186BD37C7860CBD4A7CCE519618CE5D
S113286700E3BD3A754FD64AC4FED74ACE000A02E2
S1132877CB30D7EC8FCE000A02CB30D7EA8FCB30E0
S1132887D7E9CE00E3BD37E9BD1154815526013997
S11328978144260139814C270981522712814D260B
S11328A71C397D004A27A97A004A7A004A20A19652
S11328B74A81FE279B7C004A7C004A2093964AFE65
S11328C702B1C6063ABD25ABCE5246BD37E98601ED
S10928D7BD3F4D7E2857B1
S11328DDCE5136BD37C7860EBD4A7CCE5146120C3D
S11328ED1003CE5156BD37E98604120C1002860929
S11328FDBD3DECBD11548155271A81442716814CD9
S113290D2605140C10201881522605150C10200FC5
S113291D814D26BC130C1006150D021513E0391349
S113292D0C10ADBD116EB60289B7028596F4B702CF
S109293D88FF0286209AC7
S11329433C8F3CCE00BBBD5EFABD5F12BD5690BD4D
S11329533D8CCE00BFBD5EFABD5F12BD5690BD3D3A
S1132963D4BD577EBD5B2DBD5E0ECE00C3BD5EFAE6
S1132973BD587CBD5CEF38BD5F2ACE00BFBD5EFA97
S1132983CE00BBBD5F12BD587CBD5CEF7D00092A40
S11329930BCE1BB3BD3865BD577E200E7D00042AC4
S11229A309CE1BD6BD3865BD577E38BD5F2A39B6
S11329B2CE00B7BD5EFA730004BD5D6ECE00CFBD1E
S11329C25F12BD5690BD3D8CCE00B7BD5EFA73005A
S11329D204BD5D74CE00C7BD5F12BD5690BD3DD42B
S11329E2BD5773CE00BBBD5F2ACE00B7BD5EFA737E
S11329F20004BD5D6ECE00C7BD5F12BD5690BD3DE5
S1132A028CCE00B7BD5EFA730004BD5D74CE00CFF8
S1132A12BD5F12BD5690BD3DD4BD577ECE00C3BD31
S1062A225F2A39EB
S1102A25BD3E2EBD3872CE00D3BD37C7397B
S1132A32860CBD4A7CCC0000DD26DD24CE4FB6BD1B
S1132A4237C7150C04130E2005CE42C02036CE45DE
S1132A52B820313CCE4FB6BD37C738150C04200B15
S1132A623CCE4FC6BD37C738140C04BD1154815532
S1132A7227368144270E814C27D9815227E281458A
S1132A8226E920438FC300148F120E20058C4A7C42
S1132A9220038C45B8260C120E2005CE45B820031F
S1132AA2CE42C0BD37E920C38F830014120E200B1F
S1132AB21A8345A4260ECC4A6820091A8342AC26FE
S1132AC203CC45A48F20DC3CEC10BD5A99CE0143C3
S1132AD2BD5F12BD587CBD5AEBDD2438EC12BD5AE1
S1132AE2B4CE0153BD5F12BD587C730004CE0157AE
S1132AF2BD5F12BD577EBD5AEBDD26130C0407FCE5
S1132B0201479326DD268602971FCC0000DD20DDD7
S1082B1222140C02393D
S1132B17BD2BB02405BD2B822047D64B58CE2B7234
S1132B273AEE00AD0081552614964B27054A974B7C
S1132B3720E88607131080014A974B20DD8144263D
S1132B4718964B8107270D13108004810627054C1F
S1132B57974B20C67F004B20C1BD2BB02403BD2B50
S1132B6782131310037E82017E81DE28DD28572C11
S1132B77FB149440802C5C402E3DF4BD1154CE4F81
S1132B8786BD37C7860CBD4A7C8601BD3F4DCE1036
S1132B97001C0818140D043E7D000A2BFABD1154BD
S1132BA79612B71008150D0439CE5066BD37C7BD48
S1132BB737E9860497313E7D000A2A077D003126CE
S1082BC7F50C390D3985
S1132BCCBD3D8CBD3793BD3DD4BD587CBD5CEF3948
S1132BDC8640BD4A7CCE2BF0A600BD4A87088C2CBF
S1132BEC1826F539080C0E1F0E0C080002060E1FD1
S1132BFC0E060200040E1F0404040400040404045E
S10F2C0C1F0E040000040A110A0400005A
S1132C188640BD4A7CCE2C2CA600BD4A87088C2C45
S1132C285C26F539000000000000000000101010B8
S1132C38101000000018181818180000001C1C1C9C
S1132C481C1C0000001E1E1E1E1E0000001F1F1F4D
S1072C581F1F000036
S1132C5CCE5226BD37C7860CBD4A7CBD2C184F5F9F
S1132C6CDD398640CE10001D2210C601F710301F2E
S1132C7C3080FC1C2210DE39F610313AF610323A50
S1132C8CF610333AF610343ADF394A26D78F5FCE32
S1132C9C00A4028F4D2702C6FF17809A24014F818E
S1132CAC5023028650CE00E316C1052302C605E765
S1132CBC008C00F2270808800524ED4F20EACE0092
S1132CCCE3BD37E9C6C8BD37AC7D000A2A037E2CA8
S1132CDC6ABD115481552602200F81442602200915
S1122CEC814D260220037E2C6A36BD2BDC323943
S1132CFBCE51D6BD37C7CE52061312180ACE51F693
S1132D0B13121003CE51E6BD37E9860EBD4A7C86FD
S1132D1B0A131218088606131210028602BD3DEC24
S1132D2BBD115481552601398144260139814C2723
S1132D3B208152273C814D260139961284DFCEEE39
S1132D4B28BD25ABCE5246BD37E98601BD3F4D208C
S1132D5B9F121210191312080815120814121020BE
S1132D6B0815121014120820009612B710087E2CA6
S1132D7BFB131218F91212100515121820EB151269
S1092D8B1014120820E3FD
S1132D91CE52D6BD37C7860CBD4A7CFE02B1A6040D
S1132DA18407368107273B8106273281052729813C
S1132DB1042720810327178102270E81012705CECD
S1132DC153262021CE5336201CCE53462017CE53F2
S1132DD1562012CE52E6200DCE52F62008CE5306CE
S1132DE12003CE5316BD37E9BD1154814C270A8106
S1132DF152270A8145270A3339324C20A3324A200B
S1132E019F3236FE02B1C6043AE600C4F81BBD2562
S1132E11ABCE5246BD37E98601BD3F4D327E2D9181
S1132E21CE00D32003CE00E3CC2020ED00ED02ED53
S10F2E3104ED06ED08ED0AED0CED0E3981
S1132E3D368601BD4A7CC602BD37AC8602BD4A7CCE
S10A2E4DC602BD37AC3239A7
S1132E54120E200C960E8880121040028840970EA1
S1132E64860CBD4A7C121040041210201ACE4F96D0
S1132E74BD37C7CE4FA6BD37E9BD1154814526F9E8
S1132E84CC0000DD26DD24CE4FB6BD37C7120E209C
S1132E9405CE45B820101210400913102005CE4267
S1132EA4982003CE42C0150C042016BD115481553C
S1132EB427408144270B814526F1130C04637E2F9C
S1132EC4B38FC300148F120E20058C4A7C20038C0C
S1132ED445B82619120E2005CE45B820101210400C
S1132EE40913102005CE42982003CE42C0BD37E911
S1132EF420B98F830014120E200B1A8345A4261EB6
S1132F04CC4A6820191210400C131020081A83426A
S1132F1484260B20061A8342AC2603CC45A48F20B6
S1132F24CC3CEC10BD5A99CE1BA4BD3865BD587C6D
S1132F34CE007FBD5F2ACE009FBD5F2A383CEC12D1
S1132F44BD5AB4CE1BA4BD3865BD587CBD5E0ECE3F
S1132F541BE0BD3858BD5773CE008FBD5F2A0FCC1C
S1132F640000DD24B302A8FD02AC0E1210401313BA
S1132F7410200F0FFC014DDD26B302AAFD02AE0E94
S1132F842011DC26DD511AB301492507FC014793BE
S1132F9451DD51140C0486189717CC0000DD18DD9C
S1132FA4228602971FCE4FC6BD37C7387E2EAF3C4C
S1132FB4EC10131080029318364384C0322603C3E2
S1132FC48CA0BD5A99CE1BA4BD3865BD587CCE00D7
S1132FD4A3BD5F2ABD5E0ECE007FBD5EFABD5773EE
S1132FE47D00042A09CE1BD6BD3865BD577ECE00AC
S1132FF47FBD5F2ACE1BB3BD3865BD577315101052
S11330047D00042B18141010CE1BD6BD3858CE00E6
S11330147FBD5F12BD5773CE007FBD5F2A38EC12AB
S1133024BD5AB4CE1BA4BD3865BD587CCE00AFBD1B
S11330345F2ABD5E0ECE1BE0BD3858BD5773CE006B
S113304487BD5F2AFC01399324150D101AB3013B83
S1133054250A140D10DD4DFC0139934DBD427ECE7D
S11330640083BD5F2ADC261210400E1310200AB31D
S1133074014DDD4F150D20201DDD4F1AB3014925E7
S113308407FC0147934FDD4FD351150D201AB301AB
S1133094492F03140D20DC4F121040061310200294
S11330A420029351BD428BCE0053BD5F2ACE0087CC
S11330B4BD5EFACE008FBD5F12BD5D74BD5E0EBDF4
S11330C45D74BD5690BD3D8CCE0087BD5EFACE00C6
S11330D48FBD5F12BD5D6EBD5E0EBD5D6EBD56904F
S11330E4BD5E0ECE007FBD5EFABD5D74BD5690BD5F
S11330F43DD4BD577EBD3D8CBD3793BD3DD4BD5835
S11331047CBD5CEF1304FF09CE1BB3BD3865BD570A
S11331147ECE0097BD5F2A13104019DC51BD428B4B
S1133124CE0093BD5F2ADC4FBD428BCE008BBD5FC6
S11331342A7E3236CE0053BD5EFACE1BC2BD38653C
S1133144BD587CBD5D74BD3D8CCE0083BD5EFACE9E
S11331541BC2BD3865BD587CBD5D74BD3DD4BD5630
S113316490BD3D8CCE0097BD5EFACE1BC2BD3865C2
S1133174BD587CBD5D74BD5E0EBD3DBCBD587CBDFB
S11331843793BD3D8CCE0097BD5EFACE1BC2BD38CD
S113319465BD587CBD5D74BD3DD4BD5690BD3D8CAC
S11331A4CE0083BD5EFACE1BC2BD3865BD587CBD5E
S11331B45D6EBD5E0EBD3DBCBD587CBD3D8CBD3752
S11331C493BD3DD4BD587CBD5CEF7F0004130D203A
S11331D40CBD5E0ECE1BB3BD3858BD5773CE1BC297
S11331E4BD3865BD5690CE0057BD5F2ACE0053BD91
S11331F45F12BD577ECE1BC2BD3865BD587CCE0060
S11332048BBD5F2ABD5E0ECE0057BD5EFABD5773FB
S1133214CE0093BD5F2ACE008BBD5EFACE014FBDB6
S11332245F12BD5690BD5AEB0FDD26B302AAFD0210
S1133234AE0ECE0087BD5EFACE008FBD5F12BD57C1
S11332447ECE0097BD5F12BD577ECE1BC2BD3865CE
S1133254BD587CCE009BBD5F2ACE008FBD5F12BDDE
S11332645773BD5D6EBD3D8CCE009BBD5EFACE0032
S113327497BD5F12BD5773BD5D6EBD3DD4BD569001
S1133284BD3D8CCE009BBD5EFABD5D6EBD3D8CCE56
S1133294009BBD5EFACE0087BD5F12BD5773BD5D52
S11332A46EBD3DD4BD5690BD5E0EBD3DBCBD587CC7
S11332B4BD5B2DBD5CEFCE1BC2BD3865BD56907D94
S11332C400042A09CE1BB3BD3865BD577ECE0077F2
S11332D4BD5F2ACE008BBD5EFACE0093BD5F12BDE6
S11332E4577ECE0097BD5F12BD577ECE1BC2BD383C
S11332F465BD587CCE009BBD5F2ACE0093BD5F1292
S1133304BD5773BD5D6EBD3D8CCE009BBD5EFACED4
S11333140097BD5F12BD5773BD5D6EBD3DD4BD56F0
S113332490BD3D8CCE009BBD5EFABD5D6EBD3D8CF3
S1133334CE009BBD5EFACE008BBD5F12BD5773BD3C
S11333445D6EBD3DD4BD5690BD5E0EBD3DBCBD5845
S11333547CBD5B2DBD5CEFCE1BC2BD3865BD5690F4
S11333647D00042A09CE1BB3BD3865BD577ECE004B
S11333747BBD5F2ABD5E0ECE0077BD5EFA120D10D2
S11333840373000913101003730004BD577EBD3D7D
S11333948CBD5D74BD3D8CCE0093BD5EFABD5D6E87
S11333A4BD3DD4BD5690730004CE00C7BD5F2ABD95
S11333B43DBCBD5D6EBD5E0ECE0093BD5EFABD5DCB
S11333C46EBD5690730004CE00BFBD5F2ACE009339
S11333D4BD5EFABD5D74CE00CFBD5F2ACE008FBD45
S11333E45EFABD5D6ECE00CFBD5F12BD5690BD3D8D
S11333F48CCE008FBD5EFABD5D74CE00C7BD5F1276
S1133404BD5690BD3DD4BD577ECE00BBBD5F2ACE14
S1133414008FBD5EFABD5D6ECE00C7BD5F12BD56A2
S113342490BD3D8CCE008FBD5EFABD5D74CE00CFE1
S1133434BD5F12BD5690BD3DD4BD5773CE00C3BD10
S11334445F2ACE00B3CC00B7BD2943CE1BE0BD3800
S113345458CE00B7BD5F12BD5773CE00B7BD5F2A07
S1133464CE00B3BD5EFACE009FBD5F12BD577EBDD4
S11334743D8CCE1BD6BD3865BD57737D00042A052B
S1133484BD3DBC2003BD3DD4CE00B3BD5F2ACE00F8
S1133494A3BD5EFACE00B3BD5F12BD57737D0004B5
S11334A42A09CE1BD6BD3865BD577ECE00A7BD5FA5
S11334B42ACC00AFBD3BB6BD3F58CE00A7CC00AB71
S11334C4BD3FBFCE00A7BD5EFACE013FBD5F12BDB6
S11334D45690BD5AEB0FDD24B302A8FD02AC0E14C2
S10634E40C02399A
S11334E7CE4F46BD37C7CE4F56BD37E9860CBD4ACA
S11334F77C8602BD3F4DCE377D3CEE00AD00388162
S11335075526098C377D27F1090920ED814D27E9D7
S11335178C379127E4080820E0CE5256BD37C7867A
S11335270EBD4A7CCE5276130E8003CE5286BD372B
S1133537E98603130E80028609BD3DECBD11548153
S11335474C2605150E8020D181522605140E8020A5
S1133557C88145270139FE02B1C6043AA600847F13
S1133567D60EC4801BBD25ABBD377120ACCE5266C9
S1133577BD37C7CE5276130E4003CE5286BD37E908
S11335878603130E40028609BD3DECBD1154814CE0
S11335972605150E4020D681522605140E4020CD4F
S11335A78145270139FE02B1C6043AA60084BFD675
S11335B70EC4401BBD25ABBD377120B1CE5296BD9D
S11335C737C7860EBD4A7CCE52B61210400ACE5279
S11335D7A613102003CE52C6BD37E9860A1210403F
S11335E7088601131020028606BD3DECBD115481E7
S11335F74C26111310400815104014102020BD1537
S1133607106020B881522611131060081410401559
S1133617102020A814102020A38145270139FE0279
S1133627B1C6053AA600849FD610C4601BBD25AB5E
S1133637BD37712087CE5476BD37C7860EBD4A7C09
S1133647CE5486130E2003CE5496BD37E98609134C
S11336570E20028601BD3DECBD1154814C26051494
S11336670E2020D181522605150E2020C88145271A
S11336770139FE02B1C6043AA60084DFD60EC4207F
S11336871BBD25ABBD377120ACCE5366BD37C7868E
S11336970EBD4A7C130F0443130F021E140F06CEEC
S11336A75396BD37E98601BD3DECBD1154814C27C6
S11336B7EB815227058145274339140F04150F025F
S11336C7CE5386BD37E98607BD3DECBD1154814C09
S11336D727CA815227058145272239140F02150F5E
S11336E704CE5376BD37E9860DBD3DECBD1154813B
S11336F74C27C7815227E48145270139FE02B1C609
S1133707053AA60084F9D60FC4061B84FEBD25AB73
S1133717BD37717E3690CE53A6BD37C7860EBD4AD8
S11337277CCE53C6130F0803CE53B6BD37E9860ABA
S1133737130F08028602BD3DECBD1154814C2605CA
S1133747140F0820DC81522605150F0820D3814564
S1133757270139FE02B1C6053AA60084F7D60FC47D
S1133767081BBD25ABBD377120B7CE5246BD37E91F
S11337778601BD3F4D3926FF35C3363C35203574A8
S10F378725EB25FF36903A192D91371DD3
S1133793BD3D8CBD3DD4BD5690BD5E0ECE1BB8BDA4
S10C37A33858BD5773BD5B2D3984
S11337AC86743DF3100EFD101E8608B710237D00A1
S10E37BC0A2A07B61023840827F439FA
S11337C73C86103618308680BD4A7CA60008BD4A60
S11337D787186A0026F532120C10059648BD3DEC91
S10537E738396B
S11337E93C861036183086C0BD4A7CA60008BD4AFE
S10C37F987186A0026F5323839FC
S11338023E121602501216044C7D000A2A47120C6C
S11338120806120C103F20E87D002C2706120C101B
S11338223420DDCE1000B6102D361D2D20131202C9
S113383205BD2A252010BD3C54BD3872862A97D472
S1133842CE00D3BD37C732B7102D8602972C150C84
S109385208130C10AB3951
S1133858EC00DD00EC02DD02A604970439EC00DD7F
S10D386805EC02DD07A604970939F8
S1133872C610CE39D9130C1003CE39E91212020E36
S11338821311100ACE39F9130C1003CE3A0918CECB
S113389200D3A60018A7000818085A26F5CE006F10
S11338A2BD5EFA1212023F1311103BBD3D8CCE1BBA
S11338B2B3BD3865BD57734F7D00042A0286019754
S11338C2D6BD3DBCBD39C0BD5AEB8F8D11D7DB8D42
S11338D20DD7D98D09D7D88D05D7D77E39588FCE34
S11338E2000A02CB3039BD39CFBD5AC1CB30D7D64D
S11338F2BD39C0BD5AC1CB30D7D7BD39C5BD5AC1F8
S1133902CB30D7DABD39C0BD5AC1CB30D7DBBD5AB3
S1133912EBC101264196DB4C97DB813A263886308F
S113392297DB96DA4C97DA8136262B863097DA962D
S1133932D68132271296D74C97D7813A26188630E9
S113394297D77C00D6200F96D74C97D7813426067A
S1133952863097D697D7CE0073BD5EFA1212020F45
S11339621311100B86037D00042A02860297DD7D63
S113397200042A07862D97DE7F0004BD39CFBD5A85
S1133982C1CB30D7DFBD39C0BD5AC1CB30D7E0BDC2
S113399239C0BD5AEBC10A261396E04C97E0813A2E
S11339A22609863097E096DF4C97DF5FCB30D7E26B
S11339B2130D0204864697D339CE1C092008CE1B68
S11339C2EA2003CE1BE5BD3865BD569039CE1BEA0D
S11339D2BD3865BD587C3920202020206820202055
S11339E26D202B20202E20532020202068202020F0
S11339F26D202B20202E20202020202020202E204D
S1133A0220202020202E20532020202020202E2061
S10A3A1220202020202E20BB
S1133A19CE5216BD37C7860EBD4A7CCE514612100A
S1133A298003CE5156BD37E98604121080028609F7
S1133A39BD3DECBD1154814C260514108020D18163
S1133A4952260515108020C88145270139FE02B187
S1133A59C6053AA600847FD610C4801BBD25ABCE0B
S10F3A695246BD37E98601BD3F4D20A444
S1133A75EC0018ED00EC0218ED02EC0418ED04EC72
S1133A850618ED06EC0818ED08EC0A18ED0AEC0C1E
S10C3A9518ED0CEC0E18ED0E39CD
S1133A9E31205374617220202020322053746172BD
S1133AAE20202020332053746172202020203420C3
S1133ABE5374617220202020417374657269736D92
S1133ACE2020427269676874204E6562436C732BC2
S1133ADE4E6562756C614461726B204E6562202086
S1133AEE476C7820772F436C4E6247616C6178790E
S1133AFE20436C7347616C61787920202020476CD9
S1133B0E6F6220436C737472475820772F476C6F23
S1133B1E6243475820772F444E2020204C4D43209B
S1133B2E436C2B4E65624C4D43204469664E656270
S1133B3E4C4D4320476C6F62436C4C4D43204F7089
S1133B4E6E436C734E6F6E204578697374204F709C
S1133B5E656E20436C737472506C616E6574204E86
S1133B6E656251756173617220202020534D43208C
S1133B7E436C2B4E6562534D43204469664E656219
S1133B8E534D4320476C6F62436C534D43204F702B
S1133B9E6E436C73534E6F76612052656D20556E75
S10B3BAE6B6E6F776E2020207E
S1133BB63637BD5EFA33328F3637BD5F123332BDC8
S1133BC63D8CBD3DA4BD5D74BD5E0EBD5D74BD562C
S1133BD690CE00BBBD5F2ABD3DBCBD3DD4BD3D8C72
S1133BE6BD5D74BD5E0EBD5D6EBD5690CE00BFBD9F
S1123BF65F2ABD3DBCBD5D6ECE00C3BD5F2A39E5
S1133C053637BD5EFA33328F3637BD5F123332BD78
S1133C153D8CBD3DA4BD5D74BD5E0EBD5D74BD56DC
S1133C2590CE00C7BD5F2ABD3DBCBD3DD4BD3D8C16
S1133C35BD5D74BD5E0EBD5D6EBD5690CE00BFBD4F
S1123C455F2ABD3DBCBD5D6ECE00CFBD5F2A3989
S1133C54BD0889BD3E2E1211105FCE005BBD5F12FC
S1133C64CE006FBD5EFABD57737D00042A09CE1BD6
S1133C74FEBD3865BD577ECE006FBD5F2ACE005FA2
S1133C84BD5F12CE0073BD5EFABD5773BD3D8C7F1C
S1133C940004CE1C04BD3865BD57737D00042B0F8E
S1133CA4CE1C04BD3858BD3DD4960997042003BDE9
S1133CB43DBCCE0073BD5F2A39DC20BD5A99CE1BAE
S1133CC4DBBD3865BD587CBD5E0ECE005BBD5EFABF
S1133CD4BD57737D00042A09CE1BFEBD3865BD574C
S1133CE47ECE1BEFBD3865BD5690CE00B3BD5F12CA
S1133CF4BD57737D00042709CE1BD6BD3865BD5757
S1133D047ECE0063BD5F2ACE005FBD5EFACE00673F
S1133D14BD5F2ACC0067CE0063BD3BB6BD3F58CC23
S1133D240067CE0063BD3FBFCE1BD6BD3858CE005E
S1133D3463BD5F12BD5773CE1BB3BD3865BD577EDB
S1133D44BD3D8CCE1BD6BD3865BD5773BD3DD4CEA9
S1133D5400637D00042A05BD5F382003BD5F2ACEBD
S1133D64006FBD5EFACE0063BD5F12BD57737D0064
S1133D74042A09CE1BD6BD3865BD577ECE006FBD5F
S10B3D845F2ACE00677E3C8437
S1133D8CDF1ADD1C3818DE00183C18DE02183C96CD
S1133D9C04363CDC1CDE1A39DF1ADD1C3818DE054F
S1133DAC183C18DE07183C9609363CDC1CDE1A3924
S1133DBCDF1ADD1C38329704183818DF021838184B
S1133DCCDF003CDC1CDE1A39DF1ADD1C38329709A3
S1133DDC183818DF07183818DF053CDC1CDE1A39D4
S10B3DEC97488BC0BD4A7C39E5
S1133DF4CE53D6BD37C7CE53E6BD37E9860CBD4A8C
S1133E047CBD1154815526013981442601398145EB
S1133E142606DC22DD202005814D26D439CE5056D9
S10D3E24BD37E98601BD3F4D20C6FD
S1133E2ECE1000B6102D361D2D20DC24BD427ECEC4
S1133E3E006FBD5F2ADC26BD428BBD3D8CCE1BB30D
S1133E4EBD3865BD57737D00042B0EBD3DD4CE1B0E
S1133E5ED6BD3858BD57732003BD3DBCCE1BE0BD47
S1133E6E3865BD5773730004CE0073BD5F2A1212FA
S1133E7E020412111004130D4008CE006FBD5EFA39
S1133E8E203DCE006FCC0073BD3C05BD29B2CE00E3
S1133E9E6FCC0073BD2943CE006FBD5EFACE00B366
S1133EAEBD5F12BD577EBD3D8CCE1BD6BD3865BDE4
S1133EBE57737D00042A05BD3DBC2003BD3DD412BD
S1133ECE12023813111034CE1BB3BD3865BD577EA4
S1133EDEBD3D8CCE1BD6BD3865BD5773BD5E0EBDC4
S1133EEE3DBC7D00092703BD5E0ECE1BD6BD3858E2
S1133EFEBD5773CE006FBD5F2A203FCE1BEFBD387A
S1133F0E65BD587CBD3D8CDC20BD5A99CE1BDBBDF6
S1133F1E3865BD587CBD3DD4BD577EBD3D8CCE1B92
S1133F2EFEBD3865BD5773BD3DD4CE006F7D000414
S1123F3E2A05BD5F382003BD5F2A32B7102D3925
S10E3F4DC60A3DD71E3E961E26FB3917
S1133F58CE00B7BD5EFABD5D6ECE00C3BD5F12BDB7
S1133F685690BD3D8CCE00B7BD5EFABD5D74CE00E3
S1133F78BBBD5F12BD5690BD3DD4BD5773CE00C7BF
S1133F88BD5F2ACE00B7BD5EFABD5D6ECE00BBBD77
S1133F985F12BD5690BD3D8CCE00B7BD5EFABD5DC7
S1133FA874CE00C3BD5F12BD5690BD3DD4BD577ECF
S10A3FB8CE00CFBD5F2A39E2
S1133FBF3C8F3CCE00C7BD5EFABD5F12BD5690BDAF
S1133FCF3D8CCE00BFBD5EFABD5F12BD5690BD3DA8
S1133FDFD4BD577EBD5B2DBD5E0ECE00CFBD5EFA48
S1133FEFBD587CBD5CEF38BD5F2ACE00BFBD5EFA05
S1133FFFCE00C7BD5F12BD587CBD5CEF7D00092AA2
S113400F0BCE1BB3BD3865BD577E200E7D00042A31
S112401F09CE1BD6BD3865BD577E38BD5F2A3923
S113402ECE53F6BD37C7CE5406BD37E9860CBD4A0E
S113403E7CBD1154815526013981442601398145AF
S113404E2707814D270220D8399611369612361538
S113405E1202141110BD4118329712329711CE501C
S113406E66BD37E9CE5056BD37C78601BD3F4D8676
S105407E4D39B6
S1134080CE5036BD37C7860EBD4A7CCE5176BD377D
S1134090E9860BBD3DECBD1154815526013981449F
S11340A0260139814C2602200B8152260220E78109
S11340B04D26E339CE5166BD37E98603BD3DECBDDF
S11340C01154815526013981442601398152260231
S11340D020B9814C260220E7814D260139814526ED
S11340E0DECE5056BD37E9CEEF2086FFBD25AB8C22
S11340F0EFFD260B8601BD3F4D140D017E40800867
S105410020E8B1
S1134102961136961236151202141110BD41183248
S1094112971232971139E7
S113411812104004121020037E421DBD3C54DC26BC
S1134128BD5AB4CE014FBD5F12BD587CBD5D6EBD96
S11341385E0ECE006FBD5EFABD5D6EBD5690BD3D90
S11341488CFC014D9326BD5AB4CE014FBD5F12BD00
S1134158587CBD5D6EBD5E0EBD3DBCBD587CCE1C9D
S113416890BD3865BD5690CE0077BD5F2ADC24BD6E
S11341785AB4CE013FBD5F12BD587CCE007BBD5FF3
S11341882ABD5D74CE0077BD5F12BD5690BD3D8CCF
S1134198CE007BBD5EFABD5D6ECE0073BD5F12BD01
S11341A85690BD3DD4BD577EBD5E0ECE00B7BD5EF4
S11341B8FABD5D6EBD5E0EBD587C7D000027127A87
S11341C80000CE00B3BD5F12BD577ECE00B3BD5F05
S11341D82ACE007BBD5EFABD5D6ECE0077BD5F1250
S11341E8BD5690BD3D8CCE007BBD5EFABD5D74CEE0
S11341F80073BD5F12BD5690BD3DD4BD57737D009D
S11342080027127A0000CE00B7BD5F12BD577ECEDC
S113421800B7BD5F2ABD3C54CE006FBD5EFACE0127
S11342283FBD5F12BD5690BD5AEB1AB3013B25033F
S1134238B30139D3242A03F301391AB30139250305
S1134248B30139DD24CE0073BD5EFACE014FBD5FE4
S113425812BD5690BD5AEBDE26BC014925054353D1
S1134268C30001D3262A03F301471AB301472503E0
S1094278B30147DD263905
S113427EBD5AB4CE013FBD5F12BD587C39BD5AB490
S10D428ECE014FBD5F12BD587C390C
S113429850736575646F204E6F72746820202020F7
S11342A800002328506F6C617269732028554D698A
S11342B829322E300ED322DF416C70686572747A0D
S11342C828416E6429322E3100D20B5C416C70682F
S11342D8612043617320202020322E3203F5161505
S11342E842657461202043657420202020322E30DA
S11342F80442F8FA4D69726163682028416E6429A2
S113430820322E3106CF0DEA48616D616C202028D9
S11343184172692920322E300C6C092B416C676F6D
S11343286C285065722920322D332E3512610FFF07
S11343384D697266616B20285065722920312E38C8
S113434813F4137947616D6D61204572692020204B
S113435820332E30173EFAB8416C6465626172618D
S11343686E28546175292E391AF2067452696765E4
S11343786C2020284F72692920302E311EB7FCCCBE
S1134388436170656C6C61284175722920302E3147
S11343981EEE11F8426574656C67657573652020B7
S11343A820302E3522B002E45369726975732028CF
S11343B8434D61292D312E352792F97850726F6358
S11343C8796F6E28434D692920302E342CDB020B7B
S11343D8506F6C6C7578202847656D2920312E3113
S11343E82D710AF3496F746120554D6120202020F6
S11343F820332E3134A812C3416C70686172642072
S11344082848796129322E30376EFC9D52656775CC
S11344186C757320284C656F29312E343B6804ADC4
S11344284C616D62646120554D61202020332E3526
S11344383C4410C444656C7461204C656F6E6973A8
S113444820322E3641D5080447616D6D6120554DE3
S11344586120202020322E3445B514FA416C70684E
S113446861322043566E202020322E394BC80EF874
S113447853706963612020285669722920312E30CF
S11344884EA2FBA3416C6B6169642028554D6129D8
S113449820312E3950D01344417263747572757388
S11344A828426F6F29302E305391077E426574611C
S11344B820426F6F7469732020332E3558160FC647
S11344C842657461204C69627261652020322E361F
S11344D8598DFC56416E74617265732853636F2954
S11344E820312E30609FF5AD5A65746120204865EF
S11344F87220202020322E3861C90C58416C706813
S113450861204F706820202020322E31670504E98D
S113451856656761202020284C79722920302E3076
S11345286D130F26416C74616972202841716C29DE
S113453820302E38744A037753616472202020286F
S11345484379672920322E32775B0FB944656E654B
S1134558622020284379672920312E33793B11B012
S1134568457073696C6F6E205065672020322E3455
S11345787F5D03DC457461205065676173692020A1
S113458820322E39851B0BCE466F6D616C686175C0
S11345987428507361292031868BF46E416C7068DD
S11345A8612050656761736920322E35873C05F0B8
S11345B847616D6D6120202050656720322E3820B8
S11345C8014A05EE416C706861202020416E642028
S11345D8322E312000D20B5C4265746120202020E9
S11345E843657420322E30200442F8FA416C706816
S11345F86120202050686520322E34200292EF7A00
S1134608457461202020202043657420332E3520F2
S113461806B3FC064265746120202020506865209A
S1134628332E33200675EDC04265746120202020A6
S1134638416E6420322E312006CF0DEA416C706839
S11346486120202045726920302E3520098BE9A588
S11346584F6D6963726F6E2043657420332E30206A
S11346680D9DFED6416C706861202020417269203E
S1134678322E30200C6C092B54686574613120206B
S113468845726920332E3220116AF042416C7068F9
S11346986120202043657420322E352011CE0198E4
S11346A847616D6D6120202048796920332E3220BE
S11346B81630E30147616D6D612020204572692041
S11346C8332E3020173EFAB8416C706861202020E0
S11346D8446F7220332E33201AC2EA7F416C70680B
S11346E86120202054617520302E39201AF2067476
S11346F842657461202020204F726920302E3120B9
S11347081EB7FCCC416C706861202020436F6C207C
S1134718322E3620212AF2B1416C706861202020A3
S11347284F726920302E352022B002E4416C706843
S1134738612020204361722D302E3720257EEB6ABC
S1134748416C706861202020434D612D312E352045
S11347582792F97850692020202020205075702055
S1134768322E37202AB0F182416C706861202020F3
S1134778434D6920302E34202CDB020B47616D6DCC
S11347886120202056656C20312E38202FCEED83F1
S113479852686F202020202050757020322E382037
S11347A82F9EF6825A657461202020204879612062
S11347B8332E31203449025342657461202020206D
S11347C843617220312E37203606E4C4416C706888
S11347D86120202048796120322E3020376EFC9DDC
S11347E8557073696C6F6E2043617220332E3020CC
S11347F83956E695416C7068612020204C656F201D
S1134808312E34203B6804AD4D7520202020202013
S113481856656C20322E37203F2AECB24E75202084
S11348282020202048796120332E31203F70F9ACB4
S113483844656C74612020204C656F20322E36202C
S113484841D5080444656C746120202043656E20BA
S1134858322E36204722EC3047616D6D61202020CE
S113486843727620322E362047DBF925496F74616E
S11348782020202043656E20322E38204E2FF1A8A8
S1134888416C70686120202056697220312E3020D6
S11348984EA2FBA3426574612020202043656E204C
S11348A8302E36205267E86B5468657461202020E6
S11348B843656E20322E312052B0F1CB416C7068C2
S11348C861202020426F6F20302E30205391077EC4
S11348D8416C70686120202043656E20302E3020A2
S11348E855E6E83D42657461202020204C69622029
S11348F8322E3620598DFC56416C70686120202078
S113490853636F20312E3020609FF5AD47616D6D84
S1134918612020204C757020322E38205B52EFEB3A
S1134928416C70686120202054726120312E392036
S11349386282E50945746120202020204F70682098
S1134948322E342064A0F9DC4C616D62646120204D
S113495853636F20312E362066E4F182416C70680F
S1134968612020204F706820322E3120670504E929
S113497844656C746120202053677220322E3720DE
S11349886B85F459457073696C6F6E205367722098
S1134998312E39206BD5F292416C70686120202049
S11349A84C797220302E30206D130F265A657461AD
S11349B82020202053677220332E30206F95F45422
S11349C8416C70686120202041716C20302E3820A1
S11349D8744A0377546865746120202041716C20FF
S11349E8332E3220764B0052416C706861202020AF
S11349F850617620312E392077B0E9D74265746149
S1134A082020202041717220322E39207E22FDD3AD
S1134A18457073696C6F6E2050656720322E3420A0
S1134A287F5D03DC416C706861202020477275202B
S1134A38312E372081B5EDA7457461202020202030
S1134A4850656720322E3920851B0BCE416C706867
S1134A586120202050736120312E3220868BF46E21
S1134A68416C70686120202050656720322E352003
S1074A78873C05F07E
S1134A7C3C3736CE10001D020220063C3736CE10D1
S1134A8C00495649564956495636178D1F1C020182
S1134A9C1D0201324956495649564956178D0D1C6B
S1134AAC02011D02011C02023233383984F00FF664
S10D4ABC1000C40F1BB710000E39E0
S1134AC6120C02114F5FFD0108FD010AFD010CFDE8
S1134AD6010E7E4B02BD3D8CBD3DA4BD4BB3CE0144
S1134AE6BDBD5EFACE0108BD5F2ACE01B9BD5EFA30
S1134AF6CE010CBD5F2ABD3DD4BD3DBC18CE010818
S1134B0618DF2D141501120F080314150239DC24BD
S1134B16FD010CDC26FD010E18CE010C18DF2D1448
S1134B261501120F08031415023918CE010018A72F
S1134B360018088603B702917D02912601391F2EBB
S1134B4620F6B6102F18A7001808188C010625E8B9
S1134B5618CE010018A600180818AB00188C01041A
S1134B6625F518A101270139FC0101FD02A8F3026C
S1134B76AC29072A0AF30139200EB3013920091A90
S1134B86B301392503B30139DD24FC0103FD02AA6F
S1134B96F302AE29072A0AF30147200EB301472080
S1104BA6091AB301472503B30147DD263981
S1134BB3961236141202DE6F3CDE713CDE733CDE69
S1134BC3753CBD3E2E38DF7538DF7338DF7138DF4F
S1134BD36F329712CE00B7BD5EFABD5D74CE00BFCF
S1134BE3BD5F12BD5690CE019DBD5F2ACE00B7BDF9
S1134BF35EFABD5D6ECE00BFBD5F12BD5690CE01A1
S1134C03A1BD5F2ACE00C7BD5EFABD5F12BD56903B
S1134C13BD3D8CCE00BFBD5EFABD5F12BD5690BDD7
S1134C233DD4BD577ECE01A5BD5F2ABD5B2DCE010C
S1134C33A9BD5F2ACE00C7BD5EFACE019DBD5F123A
S1134C43BD5690BD3D8CCE00BFBD5EFACE00BBBD4C
S1134C535F12730009BD5690BD3DD4BD577ECE018E
S1134C63B1BD5F2ACE00CFBD5EFACE01B1BD5F12E6
S1134C73BD5690BD3D8CCE01A5BD5EFACE01A1BD4E
S1134C835F12BD5690BD3DD4BD5773CE01A9BD5F20
S1134C9312BD587CCE1C8BBD3865BD587CCE01BD7E
S1134CA3BD5F2ACE00C7BD5EFA7D00002614CE0187
S1134CB39DBD5EFA730004CE00BFBD5F12BD587C78
S1134CC32078CE00BFBD5EFACE00C7BD5F12BD58CB
S1134CD37CBD3D8CBD3DD4BD5690CE1BB8BD38655F
S1134CE3BD577EBD5E0ECE1BB8BD3858BD587CBDC6
S1134CF33D8CCE00BFBD5EFACE019DBD5F12BD5695
S1134D0390BD3D8CCE00C7BD5EFACE00BBBD5F1225
S1134D13730009BD5690BD3DD4BD5773BD3D8CCEC4
S1134D2300C7BD5EFABD5F12BD5690BD5E0EBD3DAC
S1134D33BCBD587CBD3DD4BD5690CE1C8BBD3865DF
S10D4D43BD587CCE01B9BD5F2A39CA
S1134D4D120C02114F5FFD0108FD010AFD010CFD5E
S1134D5D010E7E4DD5BD3D8CBD3DA49611369612EA
S1134D6D36151202141110DE6F3CDE713CDE733CFD
S1134D7DDE753CBD3C57CE0073BD5EFACE0108BD59
S1134D8D5F2ACE006FBD5EFABD3D8CCE1BB3BD3820
S1134D9D65BD57737D00042B0EBD3DBCCE1BD6BD2A
S1134DAD3865BD57732003BD3DBCCE010CBD5F2AD4
S1134DBD38DF7538DF7338DF7138DF6F32971232B1
S1134DCD9711BD3DD4BD3DBC18CE010818DF2D147F
S10D4DDD1501120F08031415023922
S1134DE7BD3D8CBD3DA4BD4BB3961236141202DEF5
S1134DF76F3CDE713CDE733CDE753CCE006FCC004D
S1134E0773BD3FBFCE00B7BD5EFABD5D6ECE1C8BD2
S1134E17BD3865BD587CBD3D8CCE006FBD5EFABD07
S1134E275D6ECE01BDBD5F12BD5690BD3DD4BD576D
S1134E3773BD3D8CBD3DD4BD5690BD3D8CCE006F3A
S1134E47BD5EFABD5D74CE01BDBD5F12BD5690BD9A
S1134E573D8CBD3DD4BD5690BD3D8CCE00B7BD5EE7
S1134E67FABD5D74CE1C8BBD3865BD587CCE01B9C7
S1134E77BD5F12BD577E1512807D00042A031412EC
S1134E8780BD3D8CBD3DD4BD5690BD3DD4BD577E40
S1134E97BD3DD4BD577EBD5B2D1312800373000443
S1134EA738DF7538DF7338DF7138DF6F329712CE2A
S1134EB7010CBD5F2ABD3DD4BD3DBC18CE010C1805
S1104EC7DF2D141501120F08031415023914
S1134ED4B6103116B110322203B61032F110322555
S1134EE403F61032B110332203B61033F110332514
S1134EF403F61033B110342203B61034F110342500
S1134F0403F610341081082501394FF61031FB10D3
S1134F14328900FB10338900FB1034890004041720
S1054F240D3941
S1134F26536B7920436F6D6D616E64657220746D89
S1134F363531326B20466C6173682076352E3032FB
S1134F4620536B7920456E672C203230303920206F
S1134F562056352E303220202053502D3035202037
S1134F66312D32207374617220616C69676E3F2043
S1134F7620202020313D02202020323D0320202005
S1134F8620205374616E646279204D6F646520201D
S1134F96476F546F202B39302044656772656573FB
S1134FA65468656E20507265737320456E7465721D
S1134FB620536967687420317374205374617220B6
S1134FC620536967687420326E64205374617220BA
S1134FD64F626A656374204E6F7420466F756E6403
S1134FE620536561726368696E6720446174612049
S1134FF620466176204C69737420456D707479205F
S113500620466176204C6973742046756C6C2020AA
S113501641646420746F20466176204C6973743F42
S11350262044656C20466176204C6973743F2020C9
S1135036507572676520466176204C6973743F200B
S1135046416C726561647920696E204C69737420C1
S113505620202020202D4F4B2D20202020202020D2
S11350662020202020202020202020202020202036
S11350762058503420466C617368204D6F64652057
S113508620456E74657220746F20537461727420A7
S113509620507265737320456E746572202020203B
S11350A620426F6F74696E6720204572726F72209A
S11350B620466C617368696E67204572726F722050
S11350C620426F6F74696E67205850342020202068
S11350D62050616765302C20576169742E2E2E206E
S11350E6204E6F7720466C617368696E67202020B6
S11350F6204572617365204572726F7220202020EC
S11351062050726F6772616D204572726F72202033
S113511620466C61736820436F6D706C65746520FE
S113512620506C6561736520576169742E2E2E209C
S11351365365617263682D4944204F4E2D4F464690
S1135146012020204F4E2020206F6666202020005C
S1135156012020206F6E2020204F4646202020006C
S11351660120202059455320206E6F202020200046
S11351760120202079657320204E4F202020200016
S11351864C696D697420536561726368204D61676B
S113519620202001202020202E2020200020202036
S11351A62020446973706C6179204D6F64652020FA
S11351B60120415A2D454C2072612D6465632000FF
S11351C60120617A2D656C2052412D44454320000F
S11351D6204C434420496E74656E736974792020AB
S11351E601204C4F57206D6564206869676820006C
S11351F601206C6F77204D4544206869676820005C
S113520601206C6F77206D6564204849474820006B
S113521620536964657265616C20436C6F636B200F
S11352264520202D426174746572792B2020204616
S1135236204661766F72697465204C697374202008
S1135246536176656420746F20454550524F4D2056
S11352562052412020446972656374696F6E202070
S11352662044656320446972656374696F6E202007
S11352760120204E4F524D202072657620202000BA
S11352860120206E6F726D2020524556202020008A
S1135296202053636F7065204D6F756E743F202018
S11352A601464F524B20646F62206765726D6E0033
S11352B601666F726B20646F62204745524D4E0043
S11352C601666F726B20444F42206765726D6E00F3
S11352D652532D3233322042617564205261746513
S11352E601202020202036303020202020202000BD
S11352F601202020202033303020202020202000B0
S1135306012020202020203135302020202020009C
S11353160120202020202037352020202020200096
S11353260120202020203936303020202020200063
S11353360120202020203438303020202020200056
S1135346012020202020323430302020202020004C
S1135356012020202020313230302020202020003F
S1135366204661737454726B204F4E2F4F4646206D
S1135376206F66662020203132762020204F4E2072
S1135386206F66662020203132562020206F6E2042
S1135396204F46462020203132762020206F6E2072
S11353A62020536954656368204D6F64652020206E
S11353B620204F464620202020206F6E20202020CB
S11353C620206F666620202020204F4E202020209B
S11353D645717561746F7269616C205461626C65A4
S11353E6526573657420287072657373204529208D
S11353F65265616C69676E206F6E204F626A3F204A
S113540620202028707265737320452920202020CF
S1135416202020202020206820206D2020202E20DF
S113542620524120456E636F646572205265732E67
S113543644656320456E636F646572205265732EFE
S113544620202053657420446174653A202020206E
S1135456202043616C63756C6174696E672020203B
S113546620506C616E6574732E2E2E2077616974DC
S1135476205365742048656D69737068657265208C
S1135486206E6F727468202020534F555448202094
S1135496204E4F525448202020736F757468202084
S11354A620205B315D203220203320203420202030
S11354B620202031205B325D203320203420202020
S11354C620202031202032205B335D203420202010
S11354D620202031202032202033205B345D202000
S11354E6202053656C6563742053657475702020A1
S11354F63CBD5EE3CE00003CDF00DF027F00041803
S113550630CDEE06A600812B26030820F7BD5652A1
S11355162528812D260B73000408A600BD565225A6
S113552619812E260B08A600BD565224037E55BEAD
S11355363131BD5EED3886010D39A600BD565224C3
S113554672BD55CF0824F37C0000A60008BD565250
S113555625F5812E260AA600BD565224030820F6F8
S1135566814527037E561408A600BD56522515818B
S11355762D2706812B270520B718630008A600BD32
S1135586565224AC803018A70108A600BD565224F2
S11355961318E601585818EB015880301B18A70158
S11355A68126228C18A601186D002A01409B0097BB
S11355B600205B812E26A908A600BD565224A18D83
S11355C6080825927A000020EF96019706DC02DD92
S11355D60705790001252E057900012528D307360C
S11355E6960189009B06970132251A05790001DD8B
S11355F6022512E600C0304FD302DD02960189006F
S11356062503970139DC07DD029606970139CDEFAC
S113561606CE0000BD567D272C960018A701869855
S11356269700BD565E186D01271B2A0BCE5688BD02
S11356365F121860012006CE568CBD5F12BD5690CF
S1135646186A0126F83131BD5EED383981302506F8
S1135656813922020D390C39CE00008D1A27147DAA
S113566600012B0FDC027A0000270A057900012AC3
S1135676F5DD020C390D393736EC002602EC023220
S113568633393ECCCCCD422000007D000027057D79
S11356960005260BCC00009704DD00DD022065968C
S11356A6049809970496009B052A0924178602CEB6
S11356B6FFFF2009250E8603CE0000DF03DF00DF8F
S11356C6020D20408B809700CE00003C3C30BD5735
S11356D60B6D002B0B69036902690169007A0000EE
S11356E66D032A13A6024CA702260CC601E3002466
S11356F604467C0000ED0038DF01329703317D005B
S11357060027B34F399608D6033DA7019607D6035B
S11357163DE300ED009608D6023DE300A70324020C
S11357266C026F006F019606D6033DE302ED029606
S113573607D6023DE302ED0224026C019608D60167
S11357463DE302ED0224026C019606D6023DE30116
S1135756ED0124026C009607D6013DE301ED012418
S1135766026C009606D6013DE300ED00398D028DEC
S113577607D609C8FFD709399600260DDC05DD00D2
S1135786DC07DD0296099704397D000527FAD6045D
S1135796D80990052510811822EE183C36CE00064D
S11357A618CE0001201740811822D1183C369605E0
S11357B6970096099704CE000118CE0006173636D0
S11357C636A8003617A8013617A8023630A606E70B
S11357D6061684074CC4185454543AE6034A270957
S11357E65666026601660020F45618A602A90097BA
S11357F60318A601A901970218A600A90297013069
S1135806A6062B15245A7600017600027600037C40
S11358160000264CCC56B32053251B73000470009D
S11358260324087C000226037C0001700002240382
S11358367C00017000017D00012B25261396008053
S11358460823269700DC0227207F0003DD0120E6DB
S11358567A000027147800037900027900012AF0FF
S11358661AEE07C6093A354F39CC56BC1AEE07ED7F
S113587607C6073A35399609980497047D00052624
S11358860586047E56B57D000026054F7F00043943
S11358969600900524052B057E56BC2B1F8B8097FE
S11358A600DC0193062B182606960390082B10DCC1
S11358B60104760003DD017C000026037E56B3DC7A
S11358C601DE060826010903183C18DE01DF013C47
S11358D6CE00003C3C309608D6023DA703BD5735A2
S11358E618DF01DC02A301DE0603DF027F000138B4
S11358F63832331838D301DD014F393CCE0000BDB0
S1135906567D260738CC3000ED0039DE003CDE0239
S11359163C960436BD5EE3CE00003C3C3C1830CDDC
S1135926EE0F86207D000427057F0004862DA70040
S113593608CDEF00CE5A6BBD5F12BD5A732219CE45
S11359465A67BD5F12BD5A732216186A02CE568C68
S1135956BD5F12BD569020DC186C02CE568820F02E
S1135966CE5A6FBD5F12BD577ED600C08150CB178D
S1135976200A7400017600027600035A26F4860192
S113598618A70318A6028B082B0A810824064A18AE
S1135996A7038602800218A702186D032E15862E09
S11359A6CDEE00A70008186D0327058630A700086A
S11359B6CDEF00CE5A52860718A705186F04DC02ED
S11359C6A301DD029601A20097012505186C0420A7
S11359D6EDDC02E301DD029601A900970118A60495
S11359E68B303CCDEE00A70008186A032605862EE8
S11359F6A70008CDEF0038080808186A0526BCCDAC
S1135A06EE0009A600813027F90818E602272A863F
S1135A1645A70008862BA7005D2A0550862DA700FA
S1135A2608CDEF004FCE000A02378FCB30CDEE0003
S1135A36E7000833CB30E700086F00383838BD5E1E
S1135A46ED32970438DF0238DF0038390F4240015F
S1135A5686A00027100003E800006400000A000086
S1135A66014A7423FE4C18967F4000000096042ACF
S1135A7611D6092A0DDC051A93002605DC071A93AC
S1135A860239910926FBDC001A930526F4DC021A76
S1135A96930739CE0090C3000026057E56BC09053F
S1135AA62AFCDD017F00038F9704D7004F394D2A66
S1135AB6E24353C30001CEFF9020DBCE0000BD5667
S1135AC67D260BCC0000201B960081962A558D2C32
S1135AD63736BD5B8830EC00BD5AB4BD5E0EBD578B
S1135AE67332330C39BD5EE3CE5A6FBD5F127D004F
S1135AF6042703730009BD577EBD5EED4FD600C172
S1135B068124035F201B53C3FF922F178FDC0120D0
S1135B1601040926FC7D00042A074353C300012A15
S1135B26020C3986050D39CE0000BD567D26013995
S1135B367D00042A0486060D39BD5EE3860436DE3E
S1135B46023CDE003C18308D39960580804C2A03D1
S1135B56442003448B809705BD587CBD577E7A004C
S1135B66008D1F18EC00DD0018EC02DD02186A0433
S1135B7626E6DC05DD00DC07DD02383831BD5EEDE6
S1135B864F39DC00DD05DC02DD079604970939BDD3
S1135B965EE3CE5CEBBD5F12BD587CBD5EED960048
S1135BA6818725132606960181B02B0B7D00042BD5
S1135BB6037E56B37E56BCBD5EE39604367F000470
S1135BC6BD5AC15C37CE5C00BD5EA3CE5BFCBD5F37
S1135BD6122003BD5690306A0026F832324D2A0C44
S1135BE6BD5B88CE5E37BD5EFABD587CBD5EED4FAB
S1135BF639BD5EE320EA412DF8543738EF1D38D01D
S1135C060D013A500D013BB60B613D0888893E2AC9
S1135C16AAAB3F2AAAAB40000000408000004080A7
S1135C260000FFBD5C45BD56907E5BA48D11BD5E34
S1135C36E3CE5CEBBD5F12BD5690BD5EED4F39966B
S1135C4604270486080D39960027F8BD5EE33C3C1C
S1135C5630BD5F2A4FD600C8802A0143BD5AB4CE50
S1135C665CE7BD5F12BD569030BD5F12BD5F2A86EC
S1135C768097053C3C30BD5F38CE5E37BD5EFABDCD
S1135C86577E30BD5F12BD5F2ACE5CE3BD5EFABDB2
S1135C96577E30BD5F12BD587C30BD5F2ABD5B8820
S1135CA6BD5690CE5CC6BD5EA330BD5F12BD569098
S1135CB6383830BD5F12BD577E3838BD5EED4F397A
S1135CC63F1D89D93F3A2E8C3F638E393F92492531
S1135CD63FCCCCCD402AAAAB41000000FFC08000D7
S1135CE600403172183FDE5BD9BD5EE39604367F11
S1135CF60004CE5E37BD5F12BD5A732307BD5BF742
S1135D0686FF20014F363C3C30BD5F2ABD5B88BD13
S1135D165690CE5D45BD5EA330BD5F12BD5690382C
S1135D2638324D270CCE5D41BD5F12730004BD575A
S1135D367EBD5E8D329704BD5EED3940C90FDBBD75
S1135D46E2DD1B3E70F0F1BE8888893E9D89D9BE8E
S1135D56BA2E8C3EE38E39BF1249253F4CCCCDBFBB
S1135D66AAAAAB40800000FFBD5EE34F2005BD5EDE
S1135D76E386F036CE5E55BD5F122003BD577E9690
S1135D860426F92003BD5773BD5A7322F88D612486
S1135D960930A6002B04880FA7008D54240930A6C9
S1135DA6002A04880FA7008D47240730A60088F030
S1135DB6A700CE5E9BBD5F12BD5690BD5B88BD56E7
S1135DC6903C3C30BD5F38A6042A05CE5E3C2003D9
S1135DD6CE5E27BD5EA330A6044724037300044D9C
S1135DE62B06BD5F12BD5690383831BD5EED4F3976
S1135DF67A0005BD5A7322020C397C00057300042F
S1135E06BD577E7A00050D39DC00DE05DD05DF00B1
S1135E16DC02DE07DD07DF029604D6099709D704FC
S1135E26393738EF1DBA500D013D088889BF2AAAB3
S1135E36AB40800000FF38D00D01BBB60B613E2A93
S1135E46AAABC000000040800000FF41490FDB44BC
S1135E56B40000BD5EE3BD5B88BD5D74BD5E0EBD72
S1135E665D6EBD587C2407BD5EED86070D39BD5EAB
S1135E76ED4F397FFFFFFFBD5EE3CE5E9BBD5F1234
S1135E86BD5690BD5EED39BD5EE3CE5E9F20EECE7F
S1135E965E517E5EFA3D8EFA3543652EE18FDE0055
S1135EA63CDE023C8F9604363CCC0000DD00DD026D
S1135EB6DD03201030A6029709EC03DD07EC05DDAF
S1135EC605BD569030EE00BD5F12BD577E38C60440
S1135ED63A3CA6004326DD30C6073A3539383C3C01
S1135EE68F3037367E5F38300808BD5F123831315F
S1135EF631316E007F0004EC00052403730004971F
S1135F060027020D56D701EC02DD02397F0009ECA9
S1135F1600052403730009970527020D56D706ECDE
S1135F2602DD0739DC0058D1044656ED00DC02EDEB
S1135F360239DC0558D1094656ED00DC07ED023975
S1135F464ED1ED8B00000000000000004D1C5CBA31
S1135F5640BDD39C47CBCFCE4B9A002C418F4A965B
S1135F66484BCFCE4A50D3304095255F4898DBDB6B
S1135F764921B5804183D48448CBCFCE480702005B
S1135F86404780DC48FEC3C246ECF800416DA9FCDC
S1135F964918DBDB465E800040C18937458AAC1D63
S1135FA645E1600041834E3C46B0EAA845D7C000AF
S1135FB63FB77319493255D545C6C000413FAFB8FE
S1135FC647C3890B45AAA00041932CA547D47A90D0
S1135FD6457E400040615B5747F80A7800000000A0
S1135FE600000000000000005517DA5E0000000003
S1135FF6000000004A8973C041C6F1FD47CBCFCEED
S113600649942DE041438FDA484BCFCE489D4D004D
S113601641C358794898DBDB47A5FA00413575E258
S113602648CBCFCE000000000000000000000000B6
S11360364C3319B940FDE5C947CBCFCE4B11C1B49A
S113604641A1324C484BCFCE4A9545C041490FDB5E
S1136056000000004A04A14040E5F1E14898DBDB7A
S113606648FD7980419AA26848CBCFCE47F8F6001E
S113607640CA5A4748FEC3C246F8D800419382AA8A
S11360864918DBDB45FBC00040AD35A8493255D580
S113609645008000418C1893494BCFCE44510000F3
S11360A6410147AE47C3250D44500000419D60425F
S11360B647D47A9044040000408F3B64496549C83C
S11360C643F2000040E810624850252F43C8000000
S11360D641B50625479F95240000000000000000F6
S11360E60000000049D18BE041601BD247CBCFCEE4
S11360F6490ECE8041490FDC0000000047B126005E
S11361063D7837B5484BCFCE472A3C003FF88659F1
S11361164898DBDB46C68800415B7B4A48CBCFCE3A
S1136126461C00003F245A1D48FEC3C245570000C2
S1136136414BD70A4918DBDB448B000041C6B852F1
S1136146493255D543AC0000413CCCCD494BCFCF69
S113615642E000003F947AE147D47A8F42D00000AF
